:020000020000FC
:02000000FFC03F
:0200040057C1E2
:0200180055C1D0
:1002000040E004E00EBF0FE50DBF0BEF01BB0FEFA9
:1002100004BB05BB00270ABB0FEF07BB34E33CBFA1
:1002200001E603BF10E020E002E005BF00E40BBFE1
:100230000DE30BBD09E00ABD00E109BF0CE00EBDF6
:1002400000E00DBD0CBD78940EB502FDFDCFF89415
:10025000109515BB44D000E40BBF10E004E00EBDC8
:1002600000E00DBD0CBD78941430F0F3F89400E07C
:100270000EBD00E00BBF2CB5209525BB30D02DB5B1
:10028000209525BB403009F00EC0335F363B79F432
:100290005BEC6CEE75E87A95F1F76A95E1F75A95A3
:1002A000D1F7000041E03D50343309F440E03CBF59
:1002B0001AD0B8CF0F930FB70F9313950F910FBFAD
:1002C0000F9118950F930FB70F9300E00EBD00E04C
:1002D0000BBF00E009BF0F910FBF0F911895CF9989
:0E02E000FECF01D0089509B30F3FE9F708954E
:00000001FF
