:020000020000FC
:02000000FFC03F
:020004004BC1EE
:0200180049C1DC
:1002000010E020E004E00EBF0FE50DBF00E301BBEE
:100210000FEF04BB05BB002707BB0FE005BF00E4E1
:100220000BBF0DE30BBD09E00ABD00E109BF0CE007
:100230000EBD00E00DBD0CBD78940EB502FDFDCFE6
:10024000F894109515BB3FD000E40BBF10E004E01C
:100250000EBD00E00DBD0CBD78941430F0F3F894A1
:1002600000E00EBD00E00BBF2CB5209525BB2BD0C8
:100270002DB5209525BB27D000E00ABB05E806B9BF
:10028000369A349BFECF04B1009505BB1CD005B156
:10029000009505BB3498B099FECFB2CF0F930FB73E
:1002A0000F9313950F910FBF0F9118950F930FB7E1
:1002B0000F9300E00EBD00E00BBF00E009BF0F91FF
:1002C0000FBF0F911895C799FECF01D0089506B3BF
:0602D0000F3FE9F708955D
:00000001FF
