:020000020000FC
:02000000FFC03F
:0200040049C1F0
:0200180047C1DE
:1002000004E00EBF0FE50DBF0BEF01BB0FEF04BB0A
:1002100005BB00270ABB0FEF07BB33E33CBF01E67A
:1002200003BF10E020E002E005BF00E40BBF0DE3D8
:100230000BBD09E00ABD00E109BF0CE00EBD00E006
:100240000DBD0CBD78940EB502FDFDCFF894109550
:1002500015BB37D000E40BBF10E004E00EBD00E09A
:100260000DBD0CBD78941430F0F3F89400E00EBD91
:1002700000E00BBF2CB5209525BB23D02DB52095D4
:1002800025BBC89903C0C99903C0FBCF3D5C01C021
:1002900033533CBF1AD0C5CF0F930FB70F931395AD
:1002A0000F910FBF0F9118950F930FB70F9300E0A9
:1002B0000EBD00E00BBF00E009BF0F910FBF0F9113
:1002C0001895CF99FECF01D0089509B30F3FE9F7F4
:0202D00008958F
:00000001FF
